:020000040800F2
:10000000F81700209D0100084F2200086F2000080B
:100010004D2200085F020008E533000800000000E0
:10002000000000000000000000000000AF270008F2
:10003000D10200080000000033260008B1270008A4
:10004000B70100082F260008B7010008B701000813
:10005000B7010008B7010008D3020008B701000883
:10006000B7010008B7010008B7010008B701000890
:10007000B7010008B7010008B7010008B701000880
:10008000B7010008B7010008B7010008B701000870
:10009000D9330008B7010008B7010008B70100080C
:1000A000B7010008B7010008B7010008B701000850
:1000B000B7010008B7010008B7010008B701000840
:1000C000B7010008B7010008B7010008B701000830
:1000D000B7010008B7010008B7010008B701000820
:1000E000D9020008B7010008B7010008B7010008ED
:1000F000B7010008B7010008B7010008B701000800
:10010000000000000000000000000000B70100082F
:10011000B7010008B7010008B7010008B7010008DF
:10012000B7010008B7010008B7010008B7010008CF
:10013000B7010008B701000800000000000000003F
:10014000B7010008B7010008B7010008000000006F
:10015000000000000000000000000000000000009F
:100160000000000000000000B7010008B70100080F
:10017000B7010008000000000000000000000000BF
:1001800000000000B7010008DFF80CD000F02AF8EA
:100190000048004705340008F8170020064880474B
:1001A00006480047FEE7FEE7FEE7FEE7FEE7FEE75C
:1001B000FEE7FEE7FEE7FEE72928000889010008C0
:1001C000D2B201E000F8012B491EFBD27047002299
:1001D000F6E710B513460A4604461946FFF7F0FF46
:1001E000204610BD064C074D06E0E06840F00103D4
:1001F00094E8070098471034AC42F6D3FFF7C8FFE5
:10020000403500086035000870B58C1810F8015BA7
:1002100015F0070301D110F8013B2A1106D110F89F
:10022000012B03E010F8016B01F8016B5B1EF9D1A3
:100230002B0705D40023521E0DD401F8013BFAE729
:1002400010F8013BCB1A921C03E013F8015B01F894
:10025000015B521EF9D5A142D8D3002070BDFEE744
:10026000002070470020704710B50022044905485F
:1002700002F0DEFB0449034802F0D4FB002010BD6D
:10028000101000203C020020280C002010B5014670
:10029000034802F0C7FB024802F0A8FB002010BD93
:1002A0003C020020094A10B5D2F81822D2F81422D4
:1002B0000AB1012010BD0A460146044802F0B8FB0D
:1002C000BDE81040014802F0F3BB00003C020020F2
:1002D0007047012000F01EB8012000F01BB87047E5
:1002E00070B5044600F0ECF80546601C02D00448E6
:1002F0000078044400F0E4F8401BA042FAD370BD3B
:10030000640000200249012800D0002008707047D6
:1003100000000020044910B50A68024202D00860BB
:10032000FFF7F0FF10BD0000140401402DE9F84F65
:10033000DFF864B100234FF0010C4FF0030A4FF0D7
:100340000F090BF1040EA0E00CFA03F6324072D054
:100350004C68022C01D0122C0ED1DC0800EB840872
:10036000D8F820405D07EF0E09FA07F5AC430D6998
:10037000BD402543C8F8205007685D0091F804800F
:100380000AFA05F408F00308A74308FA05F848EA52
:100390000708C0F800804F68012F05D0022F03D056
:1003A000112F01D0122F11D18768D1F80C80A743EB
:1003B00008FA05F848EA0708C0F808804768B74314
:1003C0000E79C6F300169E403E434660C668A643BB
:1003D0008C68AC403443C4604C68E40054D52F4C66
:1003E000A56945F00105A561A46923F0030504F0A2
:1003F000010400942A4C2E19B4689D072F0F09FAA6
:1004000007F5AC43B0F1904F04D0264DA84203D17C
:10041000012512E0002510E0234DA84201D102255C
:100420000BE0224DA84201D1032506E0204DA84251
:1004300002D1042501E027E00525BD402543B56034
:10044000DBF800405D464E689443F60300D5144344
:100450002C60DEF8004075464E689443B60300D524
:1004600014432C600C4D08352C684E689443F602FA
:1004700000D514432C60084D0C352C684E6894430D
:10048000B60200D514432C605B1C0A6832FA03F4F0
:100490007FF45AAFBDE8F88F00040140001002401D
:1004A000000001400004004800080048000C00481B
:1004B000001000480AB181617047816270470000F6
:1004C00001488068704700006400002090F84120D7
:1004D000202A24D190F84020012A20D0012280F83F
:1004E0004020242280F841200268136823F0010391
:1004F00013600268136823F4805313600268136862
:100500000B43136001680A6842F001020A6020216F
:1005100080F84110002180F8401008467047022002
:10052000704790F84120202A22D190F84020012ADB
:100530001ED0012280F84020242280F84120026849
:10054000136823F0010313600268136823F47063D7
:1005500043EA0121116001680A6842F001020A6061
:10056000202180F84110002180F840100846704793
:100570000220704770B5040004D094F841000025B3
:1005800010B106E0012070BD84F84050204600F014
:100590004DF8242084F841002068016821F0010111
:1005A00001606068216820F07060086120688168DF
:1005B00021F400418160E0680128A06807D040F480
:1005C000044021688860E068022803D006E040F417
:1005D0000040F6E721684FF40060486020684168F9
:1005E000114A114341602068C16821F40041C16093
:1005F000D4E904010843A16940EA01202168C860E8
:10060000D4E907010843216808602068016841F0C7
:10061000010101606564202084F84100256384F8AD
:100620004250002070BD00000080000210B586B06E
:10063000044614216846FFF7CAFD12492068884223
:100640001ED1114C606940F4802060616069694688
:1006500000F480200590C02000901220019001201D
:10066000029003200390042004900848FFF75EFEE8
:10067000E06940F40010E061E06900F400100590CA
:1006800006B010BD005400400010024000040048B5
:10069000024881680278114481607047640000203C
:1006A000074810B5016841F010010160032000F017
:1006B00073F8002000F006F800F024F8002010BDC8
:1006C0000020024070B50D4D04464FF47A71287831
:1006D000B1FBF0F00A490968B1FBF0F001F0B3FC9E
:1006E00048B9102C07D200222146501E00F034F8E1
:1006F00000206C6070BD012070BD0000640000200F
:10070000700000200D4808B5816941F00101816148
:10071000816901F001010091C16941F08051C1611D
:10072000C069002200F0805000901146012000F0C6
:1007300013F8BDE80840012000F002B800100240A4
:1007400000F01F02012191404009800000F1E020EB
:10075000C0F8001170470000F0B40E4B1B680C4647
:10076000C3F30223C3F10705042D00D90425191D85
:10077000072901D2002300E0DB1E012606FA05F15D
:10078000491E214099409E40761E16403143F0BCE0
:1007900001F05EBD0CED00E0064900F007020868BC
:1007A0004FF6FF03184040EA0220034A1043086056
:1007B000704700000CED00E00000FA0510B50C06D3
:1007C00007D501F07F01C1EBC10100EB81002830AA
:1007D00005E0C1EBC10100EB810000F5E67099B2C4
:1007E00032B101228272C180190C0181002010BD3A
:1007F000002282728180F9E77047C1EBC10200EBF1
:100800008202D0F8A403926B02F0F8BAC1EBC102E5
:1008100000EB8202D0F8A403D2F8DC2102F043BB43
:100820002DE9F04301F07F03C3EBC3020C0600EB9C
:10083000820201D5283201E002F5E672C90913707F
:10084000517090F87013012946D0012180F870137F
:10085000977A48F6BF76002F577848F280034BF618
:100860008F7948F2C0044CF2800548F68F7136D07B
:100870008FB31778D0F800C03CF827805FEA48486B
:1008800007D53CF8278008EA010848EA05082CF853
:1008900027801778D0F800C03CF827805FEA4868C6
:1008A00007D53CF8278008EA010848EA04082CF834
:1008B000278092F800C0076837F82C400C402C4382
:1008C00027F82C401478056835F824103140194376
:1008D00025F8241025E032E00220BDE8F083A7B11E
:1008E0001778056835F827C05FEA4C6C07D535F8EE
:1008F00027C00CEA010C4CEA040C25F827C012783A
:10090000046834F82210314011E01678046834F895
:1009100026707F0405D534F826700F402F4324F845
:1009200026701278046834F8221001EA090119438C
:1009300024F82210002180F870130846CDE792F8C1
:1009400000C0076837F82C805FEA484807D537F8B9
:100950002C8008EA010848EA050827F82C80177857
:10096000056835F827C05FEA4C6C07D535F827C015
:100970000CEA010C4CEA040C25F827C01578D0F8D5
:1009800000C03CF825700F4027432CF825701578DF
:10099000046834F8251001EA0901194324F82510E8
:1009A000ADE7F0B50A0601F07F0305D5C3EBC3023E
:1009B00000EB8202283205E0C1EBC10200EB8202AB
:1009C00002F5E672002494701370C909517090F812
:1009D0007013012921D0012180F870135178036828
:1009E0000029117848F68F7648F2800533F8217097
:1009F00015D07F0607D533F82170374048F2C0067E
:100A0000374323F821701278036833F8221048F630
:100A1000BF76314081F0300114E00220F0BD7F0448
:100A200007D533F8217037404CF28006374323F85E
:100A300021701278036833F822104BF68F7631401C
:100A400081F44051294323F8221080F8704300209C
:100A5000F0BD01F07F01C1EBC10100EB8100B0F8F6
:100A6000E40180B270472DE9F04F01F07F05C5EB3E
:100A7000C5040E0600EB840401D5283401E004F51A
:100A8000E674C90925706170E260E37090F8701334
:100A900001290DD0012180F87013E27848F68F11FA
:100AA0004AB1012A21D0022A0DD0032A26D112E010
:100AB0000220BDE8F08F2278036833F822500D4001
:100AC00045F4007118E02278036833F822500D4095
:100AD00023F8225012E02378026832F823500D40A8
:100AE00045F4C06122F8231008E02278036833F847
:100AF00022500D4045F4806123F8221023780668C7
:100B000036F8235048F68F710D4048F280021543A5
:100B10001D4326F82350A77A4FF4806348F6BF7927
:100B20004BF68F7A48F2C0054CF28006EFB3D0F84E
:100B300000802778C34638F827C048F280180CEAAE
:100B4000010C4CEA080C2BF827C0E78827F0010CB1
:100B50000768BB46B7F8507094F800809E4607EBD4
:100B6000C80703EB47032BF803C0238923F00107D1
:100B700003689B46B3F850C094F80080042303EB4D
:100B8000C8039C440EEB4C0C2BF80C706378076880
:100B9000002B237837F823C04FEA4C4C7DD0BCF1B2
:100BA000000F09DA37F823C000E033E00CEA010C4B
:100BB0004CEA060C27F823C02378076837F823C0CF
:100BC0005FEA4C6C07D537F823C00CEA010C4CEAFD
:100BD000050C27F823C02578076837F825300B4027
:100BE000334327F825302378056835F8231001EAC8
:100BF0000901114325F823102378056835F82310DF
:100C000001EA0A01114325F82310002180F870132E
:100C100008464EE767780FB3A68826F001070668F6
:100C2000B6F850C094F800800CEBC80C03EB4C03F2
:100C3000F7522678036833F826707F0605D533F817
:100C400026700F402F4323F826702478036833F86A
:100C5000241001EA090181F020017DE0A58825F03A
:100C600001070568A946B5F850C094F8008004252E
:100C700005EBC805654403EB450C29F80C700568C5
:100C8000B5F8507094F800C04FF0060808EBCC0C93
:100C9000674403EB47035F1900E02DE0E3684FF67C
:100CA000FF7C3E2B0AD9C3F34F15DB0601D16D1E25
:100CB000ADB20CEA852343F4004307E0C3F34F05CC
:100CC000DB0701D06D1CADB20CEA85233B80237895
:100CD000056835F823707F0405D535F823700F407B
:100CE000374325F823702478036833F8241001EA89
:100CF0000A0181F440512FE0BCF1000F07DA37F808
:100D000023C00CEA010C4CEA060C27F823C0237818
:100D1000066836F823707F0605D536F823700F4035
:100D20002F4326F823702378066836F823700F4087
:100D30002F4326F823702378056835F8231001EA3D
:100D40000A0181F44051114325F8231024780368E7
:100D500033F8241001EA0901114323F8241054E761
:100D6000F0B501F07F05C5EBC50400EB84041E4619
:100D7000C4E977230022C4F8E42184F8CD2184F863
:100D8000CC51D4F8D85104F5E674AB4201D92B46C6
:100D9000F21A62610668062201F07F0102EBC101CE
:100DA000B6F850704FF480654FF6FF72394405EB8A
:100DB00041018D193E2B1FD9C3F34F11DB0618D00B
:100DC00002EA812141F4004102E000BF02EA8121F0
:100DD00029802278016831F822004BF68F73184081
:100DE00080F4405048F28003184321F8220000208C
:100DF000F0BD491E89B2E3E7C3F34F01DB07E5D03D
:100E0000491C89B2E2E730B590F87023012A0CD072
:100E1000012480F870430B0601F07F0207D5C2EB76
:100E2000C20300EB8303283307E0022030BDC1EB8F
:100E3000C10300EB830303F5E673C9099C701A70C4
:100E4000597048F2800352B10468002934F8221026
:100E500011D048F6BF75294081F0100110E00268FA
:100E600011884BF6BF74214081F4805181F010014C
:100E70001943118007E04BF68F75294081F48051AA
:100E8000194324F82210002180F87013084630BD61
:100E900070B5064601F07F00C0EBC00106EB81048F
:100EA0000121C4E90E230022226484F8291004F8E9
:100EB000280F1D46E068834203D90546181A606171
:100EC00000E06261A07A38B12178306830F82110F2
:100ED000490614D5228913E0ABB2A2882169306893
:100EE00001F092FB3068B0F850102278022303EB37
:100EF000C20211445A0202EB4101455220E0E2884D
:100F0000ABB2216901F080FB617848F68F7011B1B6
:100F100001290BD014E02178336833F821200240F6
:100F200048F2C000024323F8212009E0217832680A
:100F300032F8213003404CF28000034322F8213084
:100F40002278316831F8220048F6BF73184080F0EB
:100F5000300048F28003184321F82200002070BDC1
:100F600010B504460068B0F84400000402D52046DD
:100F700001F07EF92068B0F8441049050AD54FF613
:100F8000FF31A0F84410204600F0ECF80021204684
:100F900000F003F92068B0F84410490403D54BF67B
:100FA000FF71A0F844102068B0F84410890403D5FC
:100FB0004DF6FF71A0F844102068B0F84410C90441
:100FC00012D530F8401F21F004010180206830F86C
:100FD000401F21F008010180204600F0D6F821686A
:100FE0004EF6FF70A1F844002068B0F844100905DF
:100FF00018D530F8401F41F00801018021684FF2F8
:10100000FF70A1F84400206830F8401F41F004014F
:1010100001802068B0F84400C043C00402D52046D7
:1010200000F0DEF82068B0F84410890506D54FF6C8
:10103000FF51A0F84410204600F0ABF82068B0F84B
:101040004410C90503D54FF6FF61A0F8441010BD48
:1010500070B504004FF0000604D094F87103002529
:1010600010B106E0012070BD84F87053204600F0F6
:1010700043F8032084F8710301220CE0C6EBC6009C
:1010800004EB800080F8292000F8286F761CC570DA
:10109000C560056145616068B042EFD8002010E08E
:1010A000C0EBC00104EB810181F8CD5181F8CC0186
:1010B00081F8CF51C1F8D851C1F8DC51401CC1F8BA
:1010C000E05161688142EBD82068A0F84020206898
:1010D000A0F840502068A0F844502068A0F8505074
:1010E00021684FF43F40A1F8400084F8245084F870
:1010F0007123002070BD000010B50068174986B04C
:10110000884228D1164C606940F400306061606903
:10111000694600F4003005904FF4C0500090022062
:10112000019000200290032003900E2004904FF0C5
:101130009040FFF7FBF8E06940F40000E061E069EF
:10114000002200F40000059011461420FFF704FB74
:101150001420FFF7F5FA06B010BD0000005C004057
:101160000010024070B5044680680125022801D0B5
:10117000FFF7B5F82946D4F8A40301F063FFD4F8CB
:10118000A403BDE8704001F02CBFD0F8A40301F027
:1011900047BFD0F8A40301F049BF90F87023012A9B
:1011A0000AD0012280F8702341B180F82410002178
:1011B00080F870130846704702207047026880214B
:1011C000A2F84C10F3E7D0F8A42300F55D711046A7
:1011D00001F044BF10B50121FFF70EFB002010BD48
:1011E00010B50446D0F8A40301F077FFA0690028E9
:1011F00004D00348016841F00601016010BD000001
:1012000010ED00E07047000010B5054C2068C003E9
:1012100004D5FFF7F7FF4FF48030206010BD0000C9
:10122000140401402DE9F84F04460068804DC003C6
:101230006FD5E8690026C00008D4E86940F0805006
:10124000E861E869012600F0805000907948016863
:10125000C90512D40168804641F480710160FFF72E
:101260002FF9074605E000BFFFF72AF9C01B6428E5
:1012700035D8D8F80000C005F6D5286A10F44070BB
:1012800053D0A18801F4407181424ED0286A4FF4B6
:10129000803191FAA1F2B2FA82F29700664A4FF0D9
:1012A0000108174420F44070C7F8008491FAA1F1B6
:1012B000B1FA81F102EB81010023C1F80034286208
:1012C000C00732D0FFF7FCF8074641F2883A4FF0EA
:1012D000020907E0FFF7F4F8C11B514502D90320CA
:1012E000BDE8F88F99FAA9F1B1FA81F141F0400116
:1012F0004846B8EB511F01D129680CE090FAA0F1E3
:10130000B1FA81F141F04001B0EB511F02D1296ADD
:1013100001E015E0696A99FAA9F0B0FA80F000F0EE
:101320001F0008FA00F21142D4D0286A616820F444
:101330004070084328621EB1E86920F08050E861DF
:101340002078C00705D0286BA16820F0030008436F
:1013500028632078800705D5286BE16820F44030A9
:10136000084328632078400705D5286B216920F4BD
:101370004020084328632078800605D5286BE16962
:1013800020F01000084328632068800305D56868B2
:10139000A16B20F48000084368602078400605D5E2
:1013A000286B216A20F0200008432863207800077A
:1013B00005D5286B616920F4401008432863207824
:1013C000C00605D5286BA16920F4400008432863B6
:1013D0002088800505D56868E16A20F4000008438C
:1013E00068602078000605D5E86A616A20F4F87024
:1013F0000843E8622088C00505D5E86AA16A20F4A0
:1014000078500843E8622088C00405D5286B216B1A
:1014100020F48070084328632088800405D5286B59
:10142000616B20F4007008432863002058E7000037
:101430000010024000700040000042422DE9F047D9
:101440000F46050069D04A4E306800F00700B842E8
:1014500009D2306820F0070038433060306800F06F
:101460000700B84259D12878424C800705D56068FA
:10147000A96820F0F000084360602878C0073DD0DC
:101480006968012001290DD0022923D05FF00203F1
:1014900093FAA3F2B2FA82F242F02002520904D087
:1014A000226803E04FF40033F2E7626A93FAA3F391
:1014B000B3FA83F303F01F03984002422DD0606813
:1014C00020F0030008436060FEF7FAFF804641F217
:1014D00088390CE04FF00073DAE700BFFEF7F0FF49
:1014E000A0EB0801494502D90320BDE8F0876068F8
:1014F000696800F00C00B0EB810FEFD1306800F0AC
:101500000700B8420BD9306820F00700384330603C
:10151000306800F00700B84201D00120E5E72878E4
:10152000400705D56068E96820F4E0600843606022
:101530002878000706D56068296920F4605040EAE1
:10154000C100606000F01CF86168F02292FAA2F21B
:1015500001F0F001B2FA82F2D140074A515CC84072
:10156000064908600020FFF7ADF80020BDE7000045
:1015700000200240001002403035000870000020BA
:10158000144B10B55A68144802F00C0104291DD000
:1015900008291BD14FF4701494FAA4F402F47011CA
:1015A000B4FA84F4E1400D4CDB6A615C0F2494FAD8
:1015B000A4F403F00F03B4FA84F4E340074C1034AE
:1015C000D203E35C03D5B0FBF3F0484310BD0448FD
:1015D000484310BD0010024000127A001035000888
:1015E00000093D002DE9F84F040071D02078FB4D33
:1015F000C0074FF0010625D068687704C0F381006A
:10160000012807D06868C0F3810002281BD16868F0
:10161000C00318D597FAA7F0B0FA80F040F0200088
:10162000400901D0286800E0686A97FAA7F1B1FA8A
:1016300081F101F01F0106FA01F1084265D06068EE
:101640000028D2D061E06068B0F5803F0BD010B1C7
:10165000B0F5A02F17D0286820F4803028602868C3
:1016600020F4802002E0286840F480302860E86A96
:10167000A16820F00F000843E862606820B3FEF71D
:101680001FFF80460AE0286840F480202860EAE7CF
:10169000FEF716FFA0EB0800642872D897FAA7F0AF
:1016A000B0FA80F040F02000400901D0286800E046
:1016B000686A97FAA7F1B1FA81F101F01F0106FA01
:1016C00001F10842E4D020E0FEF7FAFE804607E090
:1016D000C7E000BFFEF7F4FEA0EB08006428DCD8EA
:1016E00097FAA7F0B0FA80F040F02000400901D04E
:1016F000286800E0686A97FAA7F1B1FA81F101F071
:101700001F0106FA01F10842E4D12078DFF8D08207
:1017100080074FF0000A4FF0020759D568684FF074
:10172000F80B10F00C0F07D06868C0F38100022896
:101730001BD16868C00318D497FAA7F0B0FA80F0FC
:1017400040F02000400901D0286800E0686A97FA5C
:10175000A7F1B1FA81F101F01F0106FA01F1084287
:101760002BD0206901287CD127E0206988B396FA24
:10177000A6F0B0FA80F048F82060FEF7A1FE81469E
:1017800006E055E1FEF79CFEA0EB0900022884D894
:1017900097FAA7F0B0FA80F040F02000400901D09D
:1017A000286800E0686A97FAA7F1B1FA81F101F0C0
:1017B0001F0106FA01F10842E4D028689BFAABF257
:1017C0006169B2FA82F220F0F80091400843286083
:1017D00025E0FFE796FAA6F1B1FA81F148F821A0D9
:1017E000FEF76EFE814605E0FEF76AFEA0EB0900FB
:1017F0000228CCD897FAA7F0B0FA80F040F0200089
:10180000400901D0286800E0686A97FAA7F1B1FAA8
:1018100081F101F01F0106FA01F10842E4D12078BC
:1018200000076AD5A069A0B396FAA6F0B0FA80F0D6
:1018300008EB8000C0F88064FEF742FE814605E0B8
:10184000FEF73EFEA0EB09000228A0D897FAA7F009
:10185000B0FA80F040F06000B6EB501F02D128686B
:101860000CE077E197FAA7F0B0FA80F040F0600062
:10187000B7EB501F01D1286A00E0686A97FAA7F118
:10188000B1FA81F101F01F0106FA01F21042D7D03E
:1018900033E0FFE796FAA6F0B0FA80F008EB80009C
:1018A000C0F880A4FEF70CFE814605E0FEF708FEB6
:1018B000A0EB090002289CD897FAA7F0B0FA80F0B4
:1018C00040F06000B6EB501F01D128680BE097FA9A
:1018D000A7F0B0FA80F040F06000B7EB501F01D1E4
:1018E000286A00E0686A97FAA7F1B1FA81F101F07D
:1018F0001F0106FA01F21042D8D12078400774D5B2
:10190000E8694FF00009C00009D4E86940F0805050
:10191000E861E8694FF0010900F08050009031481B
:101920000168C90512D4016841F480710160FEF7B5
:10193000C7FD834606E000BFFEF7C2FDA0EB0B002B
:10194000642875D827480068C005F5D5E0680128E7
:101950000AD008B1052811D0286A20F001002862B9
:10196000286A20F0040002E0286A40F001002862A2
:10197000E068C8B3FEF7A4FD83460DE0286A40F096
:1019800004002862F0E700BFFEF79AFDA0EB0B0110
:1019900041F2883081424BD897FAA7F0B0FA80F034
:1019A00040F04000B6EB501F01D128680BE097FAD9
:1019B000A7F0B0FA80F040F04000B7EB501F01D123
:1019C000286A00E0686A97FAA7F1B1FA81F101F09C
:1019D0001F0106FA01F21042D6D035E00010024095
:1019E000000042420070004000E034E0FEF768FD75
:1019F000834607E0FEF764FDA0EB0B0141F288305F
:101A0000814215D897FAA7F0B0FA80F040F0400074
:101A1000B6EB501F01D128680CE097FAA7F0B0FA96
:101A200080F040F04000B7EB501F02D1286A01E07F
:101A300083E0686A97FAA7F1B1FA81F101F01F011A
:101A400006FA01F21042D5D1B9F1000F03D0E869CE
:101A500020F08050E861E06980B36968C1F38101DA
:101A6000022977D04FF080714F00022809D091FAF7
:101A7000A1F0B0FA80F048F820A0FEF721FD04465E
:101A80005EE050468A4691FAA1F1B1FA81F1C14671
:101A900048F82100FEF714FD804605E0FEF710FD32
:101AA000A0EB0800022848D897FAA7F0B0FA80F017
:101AB00040F02000400902D0286801E056E0686A42
:101AC00097FAA7F1B1FA81F101F01F0106FA01F1CD
:101AD0000842E3D1D4E908100843696821F474117D
:101AE000084368609AFAAAF0B0FA80F049F82060DA
:101AF000FEF7E6FC044604E0FEF7E2FC001B0228C9
:101B00001BD897FAA7F0B0FA80F040F02000400907
:101B100001D0286800E0686A97FAA7F1B1FA81F16C
:101B200001F01F0106FA01F10842E5D01EE000BFF6
:101B3000FEF7C6FC001B022802D90320BDE8F88F7F
:101B400097FAA7F0B0FA80F040F02000400902D0E8
:101B5000286801E00CE0686A97FAA7F1B1FA81F110
:101B600001F01F0106FA01F10842E1D10020E5E78A
:101B70000120E3E72DE9F041040005D00025A5622E
:101B800094F85D0018B107E00120BDE8F08184F809
:101B90005C50204600F04AF8022384F85D3020684B
:101BA000016821F040010160E0684FF4E066B04256
:101BB00001D9002101E04FF48051B0F5706F02D0DF
:101BC000B04200D0A562276B012227B9B04201D9EB
:101BD000236300E02263D4E901031843D4E9043607
:101BE00033431843238B03F400731843E36918430A
:101BF000236A1843A36A184323681860636B606AFA
:101C0000A66918430427E36807EA164633431843D6
:101C10000843216848602068C16921F40061C161FE
:101C2000256684F85D200020AFE7000010B586B07F
:101C3000044614216846FEF7CAFA13492068884210
:101C40001FD11248816941F480518161816901F499
:101C500080510591416941F4003141614069694613
:101C600000F400300590E020009002200190002058
:101C7000029003200390052004904FF09040FEF75F
:101C800055FB06B010BD00000030014000100240BE
:101C90002DE9F84F044690F85C0000269846174658
:101CA0000D4601280DD04FF0010A84F85CA0FEF724
:101CB00007FC834694F85D00B146012804D0022653
:101CC0009BE00220BDE8F88F002D73D0002F71D06B
:101CD000032084F85D00C4F86090A563A787E787B8
:101CE000C4F84090A4F84490A4F84690C4F85090EA
:101CF000C4F84C90A068B0F5004F04D1206801688A
:101D000041F48041016020680168490603D40168FC
:101D100041F040010160E068B0F5E06F606823D9F0
:101D200010B1E08F01281BD1216835F8020BC86083
:101D300006E020688168890706D535F8021BC16076
:101D4000E08F401EE0870BE0B8F1000F3FD0B8F104
:101D5000FF3F05D0FEF7B4FBA0EB0B01414536D2A7
:101D6000E08F0028E5D137E010B1E08F012830D1B5
:101D7000E08F012804D9216835F8020BC86010E013
:101D8000216815F8010B087311E0E08721E0206855
:101D9000816889070FD5E18F012905D935F8021B24
:101DA000C160E08F801EF0E715F8011B0173E08F22
:101DB000401EEAE720E0B8F1000F08D0B8F1FF3F7D
:101DC00007D0FEF77DFBA0EB0B01414501D30326B5
:101DD00013E0E08F0028DAD15A464146204600F051
:101DE00029FC08B120202066A06818B92068C168C5
:101DF00080680090206E00B1012684F85DA084F810
:101E00005C9030465EE700002DE9F05F044690F8F4
:101E10005C0000260A9F994692460D464FF0010845
:101E200001280ED0012084F85C00FEF749FB8346B0
:101E300094F85D00616801280CD0B1F5827F07D16C
:101E400002E00220BDE8F09FA16809B9042801D092
:101E50000226F0E0002D79D0BAF1000FFBD0B9F1E5
:101E6000000FF8D094F85D00042802D0052084F813
:101E70005D0000202066C4F840A0A4F84690A4F8B5
:101E80004490A563A4F83E90A4F83C90E0642065DB
:101E9000E0684FF4E061884203D8B4F846000128B6
:101EA00004D92068426822F4805203E02068426826
:101EB00042F48052426020680268520603D40268ED
:101EC00042F040020260E068884260683FD910B189
:101ED000E08F012832D1216835F8020BC860E08F0D
:101EE000401EE0872AE000BFB8F1000F0DD0E08F60
:101EF00058B120688168890707D535F8021BC16091
:101F0000E08F401EE0874FF00008B4F8460068B14B
:101F100020688168C90709D0C0682AF8020BB4F8A4
:101F20004600401EA4F846004FF00108781C05D07A
:101F3000FEF7C6FAA0EB0B00B84268D2E08F00288B
:101F4000D2D1B4F846000028CED169E072E010B1D9
:101F5000E08F01285DD1E08F012806D9216835F88E
:101F6000020BC860E08F801E05E0206815F8011B99
:101F70000173E08F401EE0874BE000BFB8F1000F17
:101F800016D0E08FA0B120688168890710D5E18F55
:101F9000012905D935F8021BC160E08F801E04E0DD
:101FA00015F8011B0173E08F401EE0874FF0000819
:101FB000B4F8460018B320688168C9071FD0B4F888
:101FC0004610012911D9C0682AF8020BB4F846005E
:101FD000801EA4F84600B4F8460001280DD82068F9
:101FE000416841F48051416007E0017B0AF8011B20
:101FF000B4F84600401EA4F846004FF00108781CD3
:1020000007D0FEF75DFAA0EB0B00B84201D3032620
:1020100011E0E08F0028B1D1B4F846000028ADD11E
:102020005A463946204600F005FB08B120202066BC
:10203000206E00B10126012084F85D00002084F8A4
:102040005C003046FEE610B5401EB0F1807F01D343
:10205000012010BD4FF0E02460610F21601700F0F7
:10206000F7F80020A06107202061002010BDFEE7E6
:10207000F0B500230A24302537261F4611E000BFA3
:10208000B4EB107F02D905EB107C01E006EB107C6D
:1020900001F813C001EB430C00015B1C8CF80170CC
:1020A000DBB29342ECD3F0BD70B586B01421684624
:1020B000FEF78DF82B48416941F4001141614169F7
:1020C00001F400110591416941F400214161416928
:1020D00001F400210591416941F4800141614169A8
:1020E00001F480010591416941F400314161416988
:1020F00001F400310591416941F480214161406959
:10210000194E00F480204FF60875059000222946EC
:102110003046FEF7CFF93620009014480024CDE970
:10212000010469463046FEF701F900950125CDE925
:102130000154694630460394FEF7F8F80C480095C0
:10214000CDE9010469464FF09040FEF7EFF8002218
:1021500011460620FEF700FB0620FEF7F1FA06B056
:1021600070BD000000100240001000480000121076
:10217000000011100E4810B50C4901600D49416076
:1021800000210122C0E90212016141618161C16146
:102190000162FEF7EFF900210548FEF797F9BDE867
:1021A000104000210248FEF7BCB900000054004076
:1021B0008C0100200E0900200E480D494FF4E0620A
:1021C00001604FF4827141600021C0E902124FF4B6
:1021D00000720161C0E905120822C0E90721072346
:1021E0004162C0E90A13C0E90C12FFF7C3BC00004A
:1021F00000300140D801002010B500220F491048DE
:1022000000F0D5FD08B1FEF76AF80E490C4800F061
:102210008AFF08B1FEF763F80B49094800F0FAFBA2
:1022200008B1FEF75CF8064800F0CAFF002803D0AA
:10223000BDE81040FEF753B810BD000004000020B8
:102240003C0200205401002054000020FEE77047AB
:102250000907090E002806DA00F00F0000F1E0205F
:1022600080F8141D704700F1E02080F800147047DA
:102270002DE9FC5F4FF000080446ADF8008048F6F9
:102280000F7B4FF002094FF4806698E1BDF804100F
:1022900011F00F072FD030F82710ADF80010BDF85F
:1022A000001009047CD530F8271040F68F721140D9
:1022B00020F82710C7EBC70004EB800595F8D6017E
:1022C00005F5E67500286CD02878D4F800C03CF8F5
:1022D0002010BCF8502049047ED509EBC000104402
:1022E00006EB40003CF80000C0F309005FEA000A7A
:1022F00073D0EA88D0E0BDF80410C9062AD401885A
:1023000001EA0B010180206804F12805B0F8502093
:102310002B7809EBC301114406EB4101405AC0F38D
:1023200009002064A16B0844A06300212046FEF749
:1023300064FA94F824000028A7D068690028A4D182
:1023400094F82400216840F08000A1F84C0084F843
:10235000248034E1018804F5E675ADF80010BDF87D
:10236000001009051ED5B0F850202B78062101EB8E
:10237000C301114406EB4101405A04F55D71C0F3FD
:102380000903AB61AA88206800F028F92068018859
:1023900040F68F72114001802046FEF714FF0EE1D7
:1023A000A0E055E0BDF800100904D2D5018840F640
:1023B0008F72114001802068B0F850202B780621E0
:1023C00001EBC301114406EB4101405A83059B0D0B
:1023D000AB610BD0AA8801E050E062E02969206877
:1023E00000F0FCF8A969286908442861002120460A
:1023F000FEF70CFA2068B0F85010891D06EB410179
:102400004218E9683E290CD9C1F34F10C90601D121
:10241000401E80B24FF6FF7101EA802040F4004078
:1024200009E0C1F34F00C90701D0401C80B24FF64C
:10243000FF7101EA80201080216808884BF68F72B6
:10244000104080F4405048F2800210430880B6E00B
:102450002068B0F850102B78062202EBC30211441A
:1024600006EB4101415AC1F309015FEA010A24D098
:10247000AA885346296900F0B1F81EE0062101EB55
:10248000C000104406EB40003CF80000C0F3090017
:102490005FEA000A05D02A8903466046296900F0F0
:1024A0009DF82878216831F8202048F68F731A406B
:1024B00048F2C0031A4321F82020A8695044A861BB
:1024C000286900EB0A022A616B6913B1E96851457A
:1024D00004D929782046FEF799F903E029782046A7
:1024E000FEF73EFCBDF80000000668D5C7EBC7004C
:1024F00004EB8005206830F8271001EA0B0120F872
:10250000271095F8320028350028206812D0297845
:1025100030F82120B0F8503052061ED509EBC10129
:10252000194406EB4101405A83059B0DAB6124D051
:10253000EA881EE0B0F850102A7809EBC202114474
:1025400006EB4101405A83059B0DAB6121D0AA885F
:102550002969206800F058F81BE0062202EBC1014F
:10256000194406EB4101405A83059B0DAB6104D031
:102570002A892969206800F047F82978206830F80E
:10258000212048F68F731A404CF280031A4320F83A
:1025900021202068B0F850202B7809EBC3011144AA
:1025A00006EB4101405AC0F30900A86129690A18E5
:1025B0002A6129786B69204663B1FEF769FC2068BF
:1025C000B0F84410ADF8041009043FF55FAE0020E8
:1025D000BDE8FC9FFEF711F9F1E7000010B500EB34
:1025E00042005C0800F5806009D000BF30F8042B81
:1025F00001F8012B120A01F8012B641EF6D1DA074B
:1026000001D00078087010BD10B55B1C00EB4200D3
:102610005B0800F5806009D011F8012B5B1E11F8F2
:10262000014B42EA042220F8042BF5D110BDFEF73D
:10263000EBBD7047F8B515460E460B4600920446B2
:1026400000224FF4C05100F019F888B93346002237
:1026500080212046009500F060F848B933460022FA
:102660004FF4C0612046009500F008F8002804D01F
:10267000206E40F0200020660320F8BD2DE9F843CD
:102680001D4617460E4604464FF4C068DDF82090FC
:102690003CE0464505D127B9007B8DF800009DF848
:1026A0000000681C32D02DB1FDF70AFFA0EB090035
:1026B000A8422BD32068416821F0E00141606068A6
:1026C000B0F5827F0BD1A068B0F5004F02D0B0F515
:1026D000806F04D12068016821F040010160A06A88
:1026E000B0F5005F09D12068016821F40051016054
:1026F0002068016841F400510160012084F85D0008
:10270000002084F85C000320BDE8F883206881681D
:102710003140B942BDD10020F6E72DE9F0411D4618
:1027200017460E460446DDF8188034E0681C32D0A7
:102730002DB1FDF7C5FEA0EB0800A8422BD3206801
:10274000416821F0E00141606068B0F5827F0BD103
:10275000A068B0F5004F02D0B0F5806F04D12068BA
:10276000016821F040010160A06AB0F5005F09D165
:102770002068016821F4005101602068016841F47B
:1027800000510160012084F85D00002084F85C00A5
:102790000320BDE8F0812068806836EA000004D09C
:1027A0000020B842C2D10020F3E70120F9E77047CA
:1027B000FDF76EBF30B59FB028216846FDF707FDD5
:1027C000142119A8FDF703FD3C210AA8FDF7FFFC21
:1027D000032000904FF4A0200024CDE90104012043
:1027E00004901020059002250003CDE90750000158
:1027F00009906846FEF7F6FE0F20CDE9190568023C
:10280000CDE91B40012119A81D94FEF717FE0548CC
:102810000A904004189011940AA8FEF703FD1FB017
:1028200030BD0000200002001448016841F470012E
:1028300001601348016841F0010101604168114ADB
:10284000114041600168104A11400160016821F4A3
:1028500080210160416821F4FE014160C16A21F0DC
:102860000F01C162016B094A1140016300218160BF
:102870000249C003803908607047000088ED00E01D
:10288000001002400CC07FF8FFFFF6FECCFC00FFFA
:10289000D0F8180220B10021C0F814120846704781
:1028A0000220704770B50546D0F8184200F030FBA2
:1028B000C4F80C02D5F8180248B1D5F81C12D4F8A7
:1028C0000402CA6804F503719047002070BD02201D
:1028D00070BD70B504460025812100F086FA012103
:1028E000204600F082FA8221204600F07EFAD4F8D9
:1028F000180250B1D4F81C0204F5067440688047F1
:10290000206800F063FD00202060284670BD10B5EF
:10291000D0E9864159B194F80002FF2807D08B68AE
:1029200094F8012221469847FF2084F800020020F5
:1029300010BD00000A210180004870477C00002083
:102940004321018000487047CC00002043210180D2
:1029500000487047880000204321018000487047EC
:10296000100100202DE9F0410446007C00254FF4C1
:10297000007670B3402302228121204600F01CFB28
:10298000402302220121204600F016FB08230322E7
:102990008221204600F010FB4FF4077000F018FD74
:1029A000C4F81802F0B10746D4F81C02006880474A
:1029B0000020C7F81402C7F81802207CD7F80422B8
:1029C00090B140230121204600F002FB2846BDE8DB
:1029D000F081FFE7334602228121204600F0ECFA25
:1029E0003346CEE70125F1E73346EBE710B5D0F8E3
:1029F000181269B1027C002AD1F8042205D04023C4
:102A0000012100F0E5FA002010BD4FF40073F7E754
:102A1000022010BD02460220002902D00020C2F888
:102A20001C127047D0F81802C0F80412002070473A
:102A3000D0F81802C0F81022C0F808120020704721
:102A400070B50646D0F8185208780C4610F06001B0
:102A500021D0202927D1E288AAB10006607807D5C5
:102A6000D6F81C128B6829469847E288294617E059
:102A700085F80002A07985F80102E28829463046EF
:102A800000F050F80FE0D6F81C12607800228B6836
:102A90002146984707E060780A2804D103490122BB
:102AA000304600F059F8002070BD0000780000208A
:102AB00010B5D0F8181289B1D1F814220AB101204A
:102AC00010BD0122C1F81422B1F8102293B2D1F83E
:102AD0000822812100F00AFB002010BD022010BD59
:102AE00010B5D0F8142252689047002010BD13464C
:102AF00010B50A46002100F06BFA002010BD134605
:102B000010B50A46002100F0F1FA002010BD10B502
:102B10000446802100F0CFFA2046BDE81040002195
:102B200000F0C9BA10B50323C0F80821C0F8F43189
:102B3000C0F80C2113460A46002100F049FA002093
:102B400010BD10B505210023C0F8F4111A4619462E
:102B500000F03EFA002010BD10B502238261C0F8DB
:102B6000F431C26113460A46002100F0BFFA00208A
:102B700010BD10B504210023C0F8F4111A461946FF
:102B800000F0B4FA002010BD10B50A46024903A0B7
:102B900000F0DEF8004810BD280A0020434443201E
:102BA000436F6E6669670000122008800048704716
:102BB0002400002010B50A46024903A000F0C8F81E
:102BC000004810BD280A002043444320496E746524
:102BD0007266616365000000042008800048704749
:102BE0002000002010B50A46024903A000F0B0F80A
:102BF000004810BD280A002053544D6963726F6568
:102C00006C656374726F6E696373000010B50A4679
:102C1000024903A000F09CF8004810BD280A0020DB
:102C200053544D3332205669727475616C20436F72
:102C30006D506F727400000010B51A2008800A48A9
:102C40000168001D0468001D0068081809D00822EA
:102C50000649FFF70DFA0549042210312046FFF717
:102C600007FA0248801E10BDACF7FF1F3A00002093
:102C7000F8B5044648880D46010A08294BD2DFE81A
:102C800001F04A0409174A4A4048D4F81012207C3F
:102C90000A6832E0207C02260028D4F8140205D00D
:102CA000C16A684688470146467041E0816AF8E794
:102CB000C0B206282FD2DFE800F003080D12171C5F
:102CC000D4F81012207C4A6817E0D4F81012207C47
:102CD0008A6812E0D4F81012207CCA680DE0D4F89B
:102CE0001012207C0A6908E0D4F81012207C4A698E
:102CF00003E0D4F81012207C8A69694690470146A7
:102D000016E0207C38B9D4F81402416B6846884735
:102D1000F5E7207C20B129462046FFF7F8FEF8BDF4
:102D2000D4F81402016B68468847014607204870B2
:102D3000BDF800000028F2D0EA88002AEFD08242D5
:102D400000D90246ADF800202046FFF705FFF8BD88
:102D500070B5002300281DD00446002502E06D1C3C
:102D6000EDB2641C2678002EF9D1022404EB450450
:102D70001480CC545B1C0322CA5400245B1C06E064
:102D8000CA545B1CDAB28C54521CD3B2401C027879
:102D9000002AF5D170BD01004FF0000004D00129D8
:102DA00001D0022901D0022070470120704710B5E0
:102DB00080B1D0F8143213B10023C0F8143209B135
:102DC000C0F81012012180F8FC11027000F0A4F884
:102DD000002010BD022010BD10B5D0F82002FDF774
:102DE000E0FDBDE81040FFF7D6BF10B5D0F82002D7
:102DF000FDF716FDBDE81040FFF7CDBF2DE9F0410E
:102E00001746044641B1D4F8140242698AB394F8D3
:102E1000FC01032842D043E0D4F8F411002504F16A
:102E20001400022933D1D0E902639E4207D9F31A74
:102E300083609AB239462046FFF761FE12E040688F
:102E4000B0FBF3F103FB1101A1B9984212D3D4F8FE
:102E5000F81188420ED2002211462046FFF74FFE9D
:102E6000C4F8F85100231A461946204600F0B0F87D
:102E70000DE012E0D4F81402C16829B194F8FC0105
:102E8000032801D1204688472046FFF75AFE94F8D0
:102E90000002012804D184F8005201E02046904746
:102EA0000020BDE8F08170B51546044641B1D4F864
:102EB000140282693AB394F8FC01032824D025E077
:102EC000D4F8F41104F5827003291FD1D0E902214E
:102ED0008A420BD9531A83600846834200D30346C3
:102EE0009AB229462046FFF702FE0FE0D4F81402FA
:102EF000016929B194F8FC01032801D120468847D3
:102F00002046FFF736FE01E020469047002070BDC6
:102F1000D0F82002FDF79DBD10B504461C481D49A0
:102F2000C0F8A443C4F820020160082141600221D6
:102F300081600161002181610162FEF789F808B1B9
:102F4000FDF7CDF90022D4F820021823114604F52C
:102F50000874FDF733FC5823002280212068FDF718
:102F60002DFCC023002281212068FDF727FC4FF4AF
:102F70008873002201212068FDF720FC4FF4807344
:102F8000002282212068FDF719FC002010BD0000FE
:102F900080060020005C00400A0601F07F01D0F8A6
:102FA0002002C1EBC10100EB810002D590F82A009C
:102FB000704790F8CE01704710B51C461346D0F804
:102FC00020022246FDF74FFDBDE81040FFF7E3BEAB
:102FD00010B5D0F82002FDF7C3FEBDE81040FFF7A2
:102FE000DABE70B50022044640231146FFF7E4FF25
:102FF00040252B46002280212046C4F81051FFF7BF
:10300000DBFF0120256284F8FC01D4F8180228B106
:10301000D4F814022179426820469047002070BD00
:1030200090F8FD1180F8FC110020704710B590F861
:10303000FC11032904D1D0F81412C96901B18847E1
:10304000002010BD01740020704710B5D0F8200298
:10305000FEF7A3F8BDE81040FFF79DBE70B504462B
:1030600000F50270054600F04AF80120C4F8F401AA
:10307000B4F80E02C4F8F80194F8080210F01F0129
:103080000AD001290DD0022910D000F0800120467D
:1030900000F011F8002070BD2946204600F095F898
:1030A000F8E72946204600F077F9F3E7294620465D
:1030B00000F004F9EEE710B5D0F82002FDF7A3FE0A
:1030C000BDE81040FFF767BE10B5D0F82002FEF74C
:1030D00081F8BDE81040FFF75EBE90F8FC1180F863
:1030E000FD11042180F8FC110020704710B5D0F8C4
:1030F0002002FDF7CDFEBDE81040FFF74CBE0A7878
:1031000002704A7842708A78CB7802EB03224280C0
:103110000A794B7902EB032282808A79C97902EB22
:103120000121C18070470246002011B1C2F814127B
:1031300070470220704710B5D0F8142202241AB14B
:103140001268904700B90024204610BD70B50E46A5
:103150001A4D897804462970012928D894F8FC0171
:10316000022802D0032822D105E099B10320616032
:1031700084F8FC0109E091B1606888420AD0C1B2CC
:103180002046FFF7ADFC297861602046FFF7D3FFAA
:1031900002280CD02046BDE87040FFF7EABC0220B0
:1031A00084F8FC0120466160FFF79AFCF2E73146A3
:1031B0002046BDE87040FFF7AABC00007400002064
:1031C00010B5FFF781FF002010BD2DE9F04100266A
:1031D0004B78012532460A2B43D2DFE803F03C58F6
:1031E0004251420805422A27FFF742FD63E00446A8
:1031F0008888C8B9C888B8B9887800F07F0794F87B
:10320000FC01032810D084F8FE7139462046FFF7F0
:103210001CFF2046FFF7ADFC1FB1022084F8FC0123
:1032200049E084F8FC5146E020461AE0FFF78EFFA3
:1032300041E0CB88012B14D190F8FC31022B02D055
:10324000032B0ED104E08260012200F1080114E09A
:103250000122011D11E090F8FC21022A04D0032A6A
:1032600002D0FFF754FC26E0C560D0F8041209B183
:103270000321C160022200F10C01FFF76DFC1AE08E
:1032800004464888012816D1C4F804520BE00446CD
:1032900090F8FC01022801D00328C5D148880128F4
:1032A00009D1C4F80422D4F8140282682046904759
:1032B0002046FFF75EFC3046BDE8F08170B50D4654
:1032C0000446287800260979C0F34110012806D069
:1032D0006878A0B301281FD003283FD107E0D4F8B5
:1032E00014022946826820469047002070BD94F859
:1032F000FC01022817D003282CD1688828B921B1F5
:10330000802902D02046FFF7D6FED4F814022946C1
:1033100082682046904713E094F8FC01022802D00E
:10332000032817D103E0C9B180291BD116E06888B2
:10333000A0B9480604D02046FFF74EFDE5E703E0BC
:103340002046FFF716FC09E094F8FC01022807D09C
:1033500003280BD029462046FFF7D9FB304670BD25
:103360004806FBD02046FFF7A6FEF7E7080601F067
:103370007F0004EB001501D5143501E005F58275D9
:103380002046FFF709FE00B10120286002222946ED
:103390002046FFF7E1FBE1E770B5054690F8FC0138
:1033A0000C4603280DD1207901280AD8D5F814023B
:1033B000826828469047E08830B92846FFF7D9FB55
:1033C00002E02846FFF7A3FB002070BD7047000015
:1033D00000487047600400200148FDF7C1BD0000AF
:1033E00080060020FEE702E008C8121F08C1002A7C
:1033F000FAD170477047002001E001C1121F002A76
:10340000FBD1704788B0FDF74BF9FFF7D3F9FEF712
:103410004BFEFEF7AFFEFEF7CFFEFEF7EDFE354E9C
:1034200001224FF42A413046FDF744F832A30DF152
:10343000080C0FCB8CE80F0020208DF81800002519
:103440000C278DF804502A4608213046FDF732F843
:103450004FF480542346012206A92B48FEF718FC9E
:103460000F208DF818002346012206A92648FEF7F2
:103470000FFC012208213046FDF71CF8002208212C
:103480003046FDF717F88F208DF8180023460122EB
:1034900006A91D48FEF7FCFB8DF81850012301AA70
:1034A00006A919480094FEF7AFFC01220821304616
:1034B000FDF700F89DF80400D42804D1012221462C
:1034C0003046FCF7F7FF114C4FF47A76394602A8E4
:1034D000FCF7E8FE3046FCF703FF20780028F5D023
:1034E00001219DF80400FCF7DDFE25703046FCF755
:1034F000F7FEEBE70010004848656C6C6F20776FB3
:103500007264210D00000000D8010020000000209E
:1035100002030405060708090A0B0C0D0E0F101014
:103520000102030405060708090A0B0C0D0E0F1013
:103530000000000000000000010203040607080963
:1035400060350008000000208C010000080200081F
:10355000243600088C0100206C160000F6330008A9
:103560004113A92B1B08D9041AE504130D2C1B08C1
:1035700039041A890C1AB50417040309041201143A
:10358000020202164083044057260201020301038F
:103590001A1A031369021B0865041A61041A8D04C0
:1035A000192F11821093127A130A0632022A402030
:1035B0001C0902435B1125C03209041B01020B13D5
:1035C0000524161001052401100901042402020536
:1035D0002406170107058203081C10090491320A0A
:1035E0001D07050102432C070581070938442A40BD
:1035F000072A8107112B0907440A2204440A16FFEF
:10360000441365291408D3281408412A42081A0FC4
:10361000101A91101AA504C11A4D181A41041A590A
:04362000041A35044F
:040000050800018965
:00000001FF
